:020000040800F2
:100000008008002051440008250600082706000843
:100010002B0600082F060008330600080000000029
:10002000000000000000000000000000370600088B
:1000300039060008000000003B0600083D060008E5
:100040006B4400086B4400086B4400086B440008D4
:100050006B4400086B4400086B4400086B440008C4
:100060006B4400086B4400086B4400086B440008B4
:100070006B4400086B4400086B4400086B440008A4
:100080006B4400086B4400086B4400086B44000894
:100090006B4400086B4400086B4400086B44000884
:1000A0006B4400086B4400086B4400086B44000874
:1000B0006B4400086B440008370200086B440008DA
:1000C0006B4400086B4400086B4400086B44000854
:1000D0006B440008C14300086B4400086B440008EF
:1000E0006B4400086B4400086B4400086B44000834
:1000F0006B4400086B4400086B4400086B44000824
:100100006B4400086B4400086B4400086B44000813
:100110006B4400086B4400086B4400086B44000803
:100120006B4400086B4400086B4400086B440008F3
:100130006B4400086B4400086B4400086B440008E3
:100140006B4400086B4400086B4400086B440008D3
:100150006B4400086B4400086B4400086B440008C3
:100160006B4400086B4400086B4400086B440008B3
:100170006B4400086B4400086B4400086B440008A3
:100180006B4400086B44000800F002F800F03EF8F1
:100190000AA090E8000C82448344AAF10107DA45E2
:1001A00001D100F033F8AFF2090EBAE80F0013F0F6
:1001B000010F18BFFB1A43F001031847748D0000AC
:1001C000948D0000103A24BF78C878C1FAD852073D
:1001D00024BF30C830C144BF04680C6070470000C1
:1001E0000023002400250026103A28BF78C1FBD840
:1001F000520728BF30C148BF0B60704700207047CE
:100200001FB507F036FF1FBD10B510BD06F042F850
:100210001146FFF7F5FF00F08EF806F060F803B422
:10022000FFF7F2FF03BC04F033F80000002800DA07
:10023000704700BFFCE710B50121E14805F09FFDC4
:1002400001282FD1DF480068DF49096888420DD1B5
:10025000DE480068401CDD49086008460068322816
:1002600001DB002008600020D6490860D5480068FE
:10027000401CD4490860D648006808B9012000E055
:100280000020D349086000214FF47D7003F027FF60
:10029000D048016840F2E93003F021FF0121C8484D
:1002A00005F07EFD10BD70B52DED0C8B00243DE0FA
:1002B000600007F082FB41EC1D0B9FEDC70B53EC78
:1002C000102B07F0A5FB41EC1C0B07F015F900EE15
:1002D000100ADFEDC30A80EE201A11EE105A2846EC
:1002E00007F056FE41EC1B0BB0EE4B0AF0EE6B0A2A
:1002F00006F02AFCB0EE40AAF0EE60AA9FEDB90B22
:1003000053EC102B51EC1A0B07F082FB41EC190B4C
:100310009FEDB60B53EC102B07F07AFB41EC180B5A
:1003200007F01CFBB34941F82400641C322CBFDBEE
:10033000BDEC0C8B70BD2DED028B96B04FF4C874E4
:100340004FF4617600BF9FEDAC0AB0EE408A002505
:1003500000BF4FF4A06004F09BF8A82003F016FF44
:10036000A64803F0A3FF00F048FC03F097FDFFF759
:100370009AFF00F06DFA204603F00AFE304603F0C3
:100380001DFE01209249086006E04FF47A6003F0F8
:100390005FFF9BA005F004FE02F04FFD0028F4D1A2
:1003A00003F054FE9FED980A8DED0B0A9FED920A23
:1003B0008DED0C0AB0EE000A8DED0D0A9FED8E0A50
:1003C0008DED0F0A9FED8C0A8DED100A9FED8A0AC4
:1003D0008DED110A9FED880A8DED120A9FED8B0AB3
:1003E0008DED0E0A9FED880A8DED000A9FED820AC1
:1003F0008DED010AB0EE000A8DED020A9FED7E0A36
:100400008DED040A9FED7C0A8DED050A9FED7A0AB9
:100410008DED110A9FED780A8DED120A9FED7B0A92
:100420008DED0E0A41F2883003F046FEC6E07020E2
:1004300003F098FE764A7749664802F03CFD76481C
:10044000008800F40040002878D073480088C0F38A
:100450000D07012F74D171480078C92804D12C44AC
:10046000204603F095FD8EE06C480078CA2804D140
:10047000641B204603F08CFD85E068480078CB289B
:1004800004D12E44304603F099FD7CE063480078A7
:10049000CC2804D1761B304603F090FD73E05F4812
:1004A0000078CD2808D14FF4FA74204603F070FD8F
:1004B000204603F0CDFE66E058480078CE2806D1ED
:1004C0009DED0B0A30EE080A8DED0B0A5BE05348F8
:1004D0000078CF2806D19DED0B0A30EE480A8DED4D
:1004E0000B0A50E04D480078D02806D19DED0C0A4B
:1004F00030EE080A8DED0C0A45E048480078D12816
:1005000006D19DED0C0A30EE480A8DED0C0A3AE05A
:1005100042480078D22806D19DED0D0A30EE080A37
:100520008DED0D0A2FE03D480078D3282BD19DEDAD
:100530000D0A30EE480A8DED0D0A24E026E0FFE7B3
:1005400036480078D4281ED134484179007901EB2F
:1005500000213248C07801EB00413048807801EB3F
:10056000006000EE100AB8EEC00ADFED2D0A80EE42
:10057000201AB0EE418AB2EE040A28EE000ABDEE5F
:10058000C00A10EE105A002023490880C82C01DA56
:10059000C82404E040F2AA50844200DD0446C82C7E
:1005A00001DAC82404E040F2AA50844200DD044687
:1005B000204603F0EDFC304603F000FD37E7000075
:1005C0000008004014000020100000200C00002053
:1005D000A4824242000000204AD8124DFB2109406B
:1005E000000048420000000000003E400000000003
:1005F00000002440800000200000000040420F0066
:100600006861686168610000CDCCCC3D00007A442F
:1006100004000020080000206C0000205801002089
:1006200000401C46704700BFFEE700BFFEE700BF6A
:10063000FEE700BFFEE77047704770477047000055
:100640000CB50020019000907648006840F480309E
:100650007449086000BF7348006800F400300090DF
:100660000198401C0190009818B90198B0F5A04F6E
:10067000F1D16C48006800F4003010B10120009006
:1006800001E0002000900098012846D165484030E4
:10069000006840F08050634940310860624800685B
:1006A00040F44040604908605E48083000685D4999
:1006B000083108600846006840F4004008600846B9
:1006C000006840F4A05008605848091F0860081FDF
:1006D000006840F08070091F086000BF5148006842
:1006E00000F000700028F9D040F205705049086011
:1006F0004C480830006820F003004A49083108607F
:100700000846006840F00200086000BF4548083015
:10071000006800F00C000828F8D10CBD10B5454861
:10072000006840F47000434908603E48006840F0AB
:1007300001003C49086000203A4908310860394806
:1007400000683D490840374908603C48091D086079
:10075000081F006820F48020091F0860002031492C
:100760000C310860FFF76CFF4FF0006031498039B1
:10077000086010BD70B50020002202230024022171
:10078000284D08352D6805F00C0020B1042806D04E
:10079000082834D107E02A4D2A4E356033E02A4D2F
:1007A000284E35602FE01F4D2D1D2D68C5F3805458
:1007B0001C4D2D1D2D6805F03F0154B1224DB5FB98
:1007C000F1F5184E361D3668C6F3881605FB06F29D
:1007D00009E01B4DB5FBF1F5124E361D3668C6F328
:1007E000881605FB06F20F4D2D1D2D68C5F301453A
:1007F0006D1C6B00B2FBF3F5124E356003E0104D3B
:10080000104E356000BF00BF064D08352D68C5F39A
:1008100003150E4E705D0B4D2D68C540094E3560B9
:1008200070BD0000003802400070004008544007CE
:10083000003C024088ED00E0FFFFF6FE103000248F
:100840000024F4001800002000127A001C00002090
:100850001CB50121202004F0AFF94FF4C0600090D6
:1008600001208DF8040000208DF8060003208DF88B
:10087000050001208DF807006946044803F0FEFEDC
:100880004FF4C061014803F075FF1CBD0014024025
:100890001CB50121022004F08FF9C0200090012036
:1008A0008DF8040000208DF8060003208DF8050067
:1008B00001208DF807006946884803F0DFFE01201B
:1008C000874908608749C1F89C021CBD10B5834860
:1008D000006820F44040814908600846006840F400
:1008E0008040086001207E49091D08607D49C1F8EB
:1008F0009802042003F064FC00207949091D086077
:10090000042003F05DFC00207649C1F8980210BD78
:1009100010B57248006820F44040704908600846ED
:10092000006840F48040086000206D4908606D490F
:10093000C1F89C02042003F043FC012068490860D0
:100940006849C1F89C02042003F03AFC10BD10B5C0
:1009500000246248006820F440406049086008466E
:100960000068086001205E49091D086003F028FC4A
:1009700001205C49C1F8980203F022FC07E0601CEA
:10098000C4B2FA2C03DDFFF7C3FF012010BD5448A9
:100990007C3800680028F2D15149086000BFF5E7B3
:1009A00010B500204E4908604C48006820F44040D3
:1009B0004A4908600846006840F48040086000200A
:1009C0004849C1F89C02022003F0FAFB0120444987
:1009D0000860022003F0F4FB00204249C1F89802AD
:1009E00010BD10B500203E4908603C48006820F466
:1009F00040403A4908600846006840F4804008607A
:100A000001203849C1F89C02022003F0D9FB0120E3
:100A100033490860022003F0D3FB00203149C1F8BC
:100A2000980210BD70B504462C48006820F4404080
:100A30002A4908600846006840F4804008600020A9
:100A400027490860002517E0E0092549091D0860CD
:100A50006006040E022003F0B3FB01202149C1F817
:100A60009802022003F0ACFB00201D490860022020
:100A700003F0A6FB681CC5B2082DE5DB70BD70B5A0
:100A8000054600241548006820F4404013490860DA
:100A9000084600680860002616E00020104908603B
:100AA000022003F08DFB01200E49C1F89802600678
:100AB000040E0B487C38006808B1601CC4B20120E9
:100AC00003F07EFB701CC6B2082EE6DB15B9FFF7FB
:100AD00088FF01E0FFF764FF204670BD000402407C
:100AE000988240420080404270B505460C46FFF7B0
:100AF000EDFED020FFF796FFFFF729FF18B1FFF7B3
:100B000007FF012070BD2846FFF78CFFFFF71FFF8E
:100B10002046FFF787FFFFF71AFF18B1FFF7F8FE2F
:100B20000120EFE7FFF7F4FE0020EBE770B5044685
:100B30000025BC2C01DB012510E0622C01DB022525
:100B40000CE02A2C01DB032508E0142C01DB042532
:100B500004E00A2C01DB052500E0062529461A20C1
:100B6000FFF7C2FF70BD70B50446B4F57A7F01DDB2
:100B70004FF47A74042C00DA04244FF47A7090FB5A
:100B8000F4F0401EC5B229461920FFF7ADFF054617
:100B9000264604EBD671C1F34F00FFF7C7FF70BDC7
:100BA00070B50446FFF792FED020FFF73BFFFFF73A
:100BB000CEFE2046FFF736FFFFF7C9FEFFF786FEA1
:100BC000D120FFF72FFFFFF7C2FE0020FFF757FFEE
:100BD0000546FFF79DFE284670BD10B50446E006A9
:100BE000010E1C20FFF780FF10BD10B50446E00683
:100BF000010E1B20FFF778FF10BD10B5FFF748FE70
:100C000080216B20FFF770FF642003F021FB00219F
:100C10006B20FFF769FF0320FFF7E7FF0020FFF7D6
:100C2000DCFF3220FFF79FFF00213820FFF75CFF39
:100C300000216A20FFF758FF00212320FFF754FF0F
:100C400080213720FFF750FF7520FFF7A9FF0446EA
:100C5000682C0BD101216B20FFF746FF00216C208F
:100C6000FFF742FF3220FFF77EFF01E0012010BDB9
:100C70000020FCE72DE9F04106460F4614461D46CC
:100C8000FFF724FE002141EA4601C8B2FFF7CAFE81
:100C9000FFF75DFE20B1FFF73BFE0120BDE8F081CC
:100CA0003846FFF7BFFEFFF752FEFFF70FFE0121A8
:100CB00001EB4601C8B2FFF7B5FEFFF748FE0DE0B5
:100CC000012C04D10020FFF7DAFE287003E0012098
:100CD000FFF7D5FE2870601EC4B26D1C002CEFD14A
:100CE000FFF716FE0020D9E710B52DED088B82B076
:100CF00001AB022241216820FFF7BCFF9DF80500EF
:100D00009DF8041040EA012004B2204606F055FE8A
:100D100041EC1B0B9FED500B53EC102B06F0C6FC67
:100D200041EC1A0B9FED4E0B53EC102B06F016FC0A
:100D300041EC190B06F0E0FB08EE100A9FED4A0AA1
:100D400028EE000ABDEEC00A10EE100A00B202B092
:100D5000BDEC088B10BD2DE9FC4104460D4616463E
:100D60006B46062243216820FFF784FF0746BFB980
:100D70009DF801009DF8001040EA012000B220809B
:100D80009DF803009DF8021040EA012000B228807F
:100D90009DF805009DF8041040EA012000B2308063
:100DA0003846BDE8FC812DE9FC4104460D46164657
:100DB0006B4606223B216820FFF75CFF0746BFB960
:100DC0009DF801009DF8001040EA012000B220804B
:100DD0009DF803009DF8021040EA012000B228802F
:100DE0009DF805009DF8041040EA012000B2308013
:100DF0003846BDE8FC812DE9F04105460E46174610
:100E00009846FFF763FD002141EA4501C8B2FFF7AC
:100E100009FEFFF79CFD20B1FFF77AFD0120BDE838
:100E2000F0813046FFF7FEFDFFF791FD00240CE056
:100E300018F80400FFF7F6FDFFF789FD18B1FFF77A
:100E400067FD0120EBE7601CC4B2BC42F0DBFFF79A
:100E50005FFD0020E3E70000000000000040754057
:100E6000A4703D0AD74342400000C8420146F748FB
:100E7000407A30B1012808D002280AD0032810D1C6
:100E80000BE04FF4804008800EE041F69C70088033
:100E90000AE04FF48050088006E04FF400600880BC
:100EA00002E04FF0FF30704700BFE848C07C10B14F
:100EB0000888401008800020F5E70146E348007AE2
:100EC00030B1012809D002280CD0032814D10EE03B
:100ED0009FEDDF0A81ED000A11E09FEDDE0A81ED52
:100EE000000A0CE09FEDDC0A81ED000A07E09FEDAF
:100EF000DB0A81ED000A02E04FF0FF30704700BFCF
:100F00000020FBE708B5D148807A10B94FF0FF30D8
:100F100008BD00200090CD4A1268D17BCB4A5268B0
:100F200010786B460122FFF766FF10B14FF0FF30DB
:100F3000EEE7C64A12685179C44A526810786B4687
:100F40000122FFF758FF10B14FF0FF30E0E7BF4A32
:100F500012681179BD4A526810786B460122FFF77A
:100F60004AFF10B14FF0FF30D2E7B84890F82400A4
:100F7000002853D00C200090B44A12681179B34A6B
:100F8000526810786B460122FFF735FF10B14FF021
:100F9000FF30BDE7322003F05BF9C0200090AB4882
:100FA000807A00F0010020B19DF8000040F02000A0
:100FB0000090A64A12681179A44A526810786B46CC
:100FC0000122FFF718FF10B14FF0FF30A0E79F4854
:100FD000407C10B10220009001E0002000909B4A6C
:100FE0001268D17B994A526810786B460122FFF74C
:100FF00002FF10B14FF0FF308AE700200090934AC3
:1010000012685179914A526810786B460122FFF7B5
:10101000F2FE002855D04FF0FF3079E70420009011
:101020008A4A12681179894A526810786B460122FF
:10103000FFF7E1FE10B14FF0FF3069E78348807C95
:1010400020B98248807A00F0010010B94020009059
:1010500001E0602000907D4A126811797B4A526855
:1010600010786B460122FFF7C6FE10B14FF0FF303B
:101070004EE7322003F0ECF87448407C10B10120B8
:10108000009001E000200090704A1268D17B6F4A06
:10109000526810786B460122FFF7ADFE10B14FF099
:1010A000FF3035E7694A12685179684A526810780A
:1010B000664B10330122FFF79EFE10B14FF0FF3058
:1010C00026E7002024E738B50446604890F824005D
:1010D000C0B114B10220009001E0002000905B4AF2
:1010E0001268D17B594A526810786B460122FFF78B
:1010F00082FE10B14FF0FF3038BD9DF8001053480C
:10110000417423E05148807A10B94FF0FF30F3E783
:1011100024B14E48407C08B10020EDE714B1012015
:10112000009001E000200090484A1268D17B474AB5
:10113000526810786B460122FFF75DFE10B14FF048
:10114000FF30D9E79DF80010404841740020D3E7F4
:1011500038B504463D48807A10B94FF0FF3038BDAD
:10116000BC2C02DB0120009015E0622C02DB022087
:10117000009010E02A2C02DB032000900BE0142CDE
:1011800002DB0420009006E00A2C02DB0520009020
:1011900001E0062000902D48C07A9DF8001088429A
:1011A00001D10020DBE7294A12689178274A52686A
:1011B00010786B460122FFF71EFE10B14FF0FF3092
:1011C000CDE79DF800102148C1720020C7E770B537
:1011D0000446002624F001041C4890F8240008B1BD
:1011E000002070BD1948807A10B94FF0FF30F8E741
:1011F0001648057C807A2040144908740846007C13
:10120000A04202D04FF0FF3600E0002614B90F488C
:10121000007D18B10120FFF756FF02E00020FFF724
:1012200052FF3CB1FFF76EFE20B1084805744FF045
:10123000FF30D6E73046D4E738B50446034890F887
:101240002300A0420CD1002038BD00002C0000205B
:1012500000000343000083423333034233338341AE
:1012600014B13020009001E000200090FE48807C06
:1012700020B19DF8000040F002000090FA4890F87C
:10128000220020B19DF8000040F080000090F64A56
:101290001268117DF44A526810786B460122FFF7FC
:1012A000AAFD10B14FF0FF30CEE7EF4880F82340A1
:1012B0000020C9E738B50446282C02DD4FF0FF3086
:1012C00038BDDCB90020FFF7B7FF00208DF8000023
:1012D00007208DF80100E44A1268917CE24A5268C6
:1012E00010786B460222FFF786FD10B14FF0FF30F9
:1012F000E6E70021DC4801750020E1E70120FFF767
:101300009BFF20208DF80000012C06D100208DF8D5
:1013100001000520FFF71CFF17E0052C06DC01206B
:101320008DF801000520FFF713FF0EE0142C06DCFA
:1013300002208DF801000A20FFF70AFF05E00320D4
:101340008DF801001420FFF703FF9DF8010007212D
:1013500001EB8010C0B28DF80100C34A1268917C85
:10136000C14A526810786B460222FFF744FD10B163
:101370004FF0FF30A4E70821BB48817200210173C0
:10138000012101750020FFF722FF002098E738B502
:101390000446B548807A10B94FF0FF3038BDB248E6
:1013A00090F8240010B14FF0FF30F7E7AE48007D11
:1013B00050B134B1282C04DCE0B2FFF77BFF0020F1
:1013C000ECE70020FFF776FF042C01DA042404E0A8
:1013D000B4F57A7F01DD4FF47A744FF47A7090FBA4
:1013E000F4F0401EC0B200909F4A126851789E4AA5
:1013F000526810786B460122FFF7FDFC10B14FF0E8
:10140000FF30CBE79DF80000401C4FF47A7191FB50
:10141000F0F081B29448C1810146C9894810FFF7B4
:1014200097FE0020BAE738B504468F48807CA0427A
:1014300001D1002038BD002C46D08B4A12681179AA
:10144000894A526810786B460122FFF713FC10B1ED
:101450004FF0FF30EEE79DF8000020F020000090F4
:10146000814A12681179804A526810786B460122CD
:10147000FFF7C1FC10B14FF0FF30DBE7032002F0B3
:10148000E7FE02200090784890F8220020B19DF8F5
:10149000000040F080000090734890F8230020B1D5
:1014A0009DF8000040F0300000906F4A1268117DF6
:1014B0006D4A526810786B460122FFF79CFC0028A9
:1014C00051D04FF0FF30B5E7674A12681179664A8C
:1014D000526810786B460122FFF7CCFB10B14FF039
:1014E000FF30A7E76048807A00F0010028B19DF83E
:1014F000000040F02000009004E09DF8000020F083
:1015000020000090584A12681179574A52681078A2
:101510006B460122FFF76FFC10B14FF0FF3089E7F7
:10152000032002F095FE504890F8220010B1802070
:10153000009001E0002000904B4890F8230020B17B
:101540009DF8000040F030000090474A1268117D7D
:10155000454A526810786B460122FFF74CFC10B1E7
:101560004FF0FF3066E740488474002062E738B5EA
:1015700004463D4890F82400A04201D1002038BD27
:1015800024B3394890F8250010B94FF0FF30F6E742
:101590000020FFF798FD0020FFF745FF3249C88C77
:1015A000FFF7F5FE002000902F49496808786B4648
:1015B00001222321FFF71FFC01212B4880F8241072
:1015C0000120FFF780FDFFF79DFC13E00020FFF7EF
:1015D0007AFD2548007C00902349496808786B46CD
:1015E00001222321FFF707FC00211F4880F8241067
:1015F000FFF788FC0020C2E738B5044604F070000D
:1016000010B10120009005E014B10020009001E02D
:1016100040200090144A1268917C134A5268107856
:101620006B460122FFF7E7FB20B100210E488172D3
:10163000481E38BD9DF8000020F040010A480173A3
:101640000020009004F0400020B99DF8000040F018
:101650000400009004F0200020B99DF8000040F044
:101660000200009002E000002C00002004F01000B6
:1016700020B99DF8000040F00100009004F008003F
:1016800020B99DF8000040F038000090FC4A126834
:10169000D17CFB4A526810786B460122FFF7ABFB06
:1016A00020B10021F6488172481EC2E724B1082CFF
:1016B00002D00020FFF7C0FDF148847200210175BF
:1016C000322002F0C5FD0020B3E738B50446EC48EF
:1016D000807A10B94FF0FF3038BD022C06D0042CB0
:1016E00007D0082C08D0102C0CD108E00020009066
:1016F0000BE00820009008E01020009005E0182082
:10170000009002E04FF0FF30E6E700BFDC48407A8F
:101710009DF80010B0EBE10F01D10020DCE7D84AC2
:101720001268D179D64A526810786B460122FFF7C9
:1017300062FB10B14FF0FF30CEE79DF80000C11002
:10174000CF4841720020C7E738B50446CC48807ABC
:1017500010B94FF0FF3038BDFA2C09D0B4F5FA7F3C
:1017600009D0B4F57A7F09D0B4F5FA6F0CD108E04E
:10177000002000900BE00820009008E0102000906E
:1017800005E01820009002E04FF0FF30E3E700BFD3
:10179000BB48007A9DF80010B0EBE10F01D10020AA
:1017A000D9E7B74A12689179B54A526810786B4602
:1017B0000122FFF720FB10B14FF0FF30CBE79DF87F
:1017C0000000C010AE4908720020C4E7F0B52DED4E
:1017D000048B81B006460F460025A9494968087860
:1017E0006B4603220D21FFF745FA20B1072001B017
:1017F000BDEC048BF0BD9DF8000000F01F008DF8DB
:1018000000009DF8010000F01F008DF801009DF818
:10181000020000F01F008DF80200002455E056F889
:10182000241057F82420881A002801DB014600E024
:10183000414200EE101AB8EEC00ADFED920A80EEC7
:10184000208A1DF8040068B38F4890ED000AB8EEB6
:10185000400ADFED8E0A80EE801AF0EE418A05E044
:101860009FED8B0A28EE800AF0EE408A1DF80400F6
:10187000401EC0B20DF804000028F1D188EE280AFD
:10188000F7EE000A30EE609AB0EEC90A7E48D0ED5D
:10189000060AB4EEE00AF1EE10FA15DD0120A040D0
:1018A000054311E0784890ED040AB4EEC80AF1EE61
:1018B00010FA06DC90ED050AB4EEC80AF1EE10FA53
:1018C00002D20120A0400543641C032CA7DB28465C
:1018D0008DE77CB505466A494968087801AB042262
:1018E0000D21FFF7C7F908B107207CBD9DF807005F
:1018F000C0F301109DF8041001F0E00140EAE1009E
:101900008DF800009DF80700C0F381009DF80510D8
:1019100001F0E00140EAE1008DF801009DF80700C8
:1019200000F003009DF8061001F0E00140EAE1003C
:101930008DF80200002427E01DF8040030B99FED67
:10194000550A05EB840080ED000A1BE09FED520A6A
:1019500005EB840080ED000A0BE005EB840090EDC0
:10196000000ADFED4E0A20EE200A05EB840080ED30
:10197000000A1DF80400401EC0B20DF80400002843
:10198000EBD100BF601CC4B2032CD5DB0020ACE758
:10199000F0B52DED028B83B006460F460025684654
:1019A000FFF797FF002447E056F8241057F824204B
:1019B000881A002801DB014600E0414200EE101ABF
:1019C000B8EEC00ADFED2F0A80EE208A684600EBF1
:1019D000840090ED000AB5EEC00AF1EE10FA18D0BE
:1019E000684600EB8400D0ED000A88EE200AF7EE8E
:1019F000000A70EE608AB0EEE80A2348D0ED090ACA
:101A0000B4EEE00AF1EE10FA15DD0120A040054326
:101A100011E01D4890ED070AB4EEC80AF1EE10FA85
:101A200006DC90ED080AB4EEC80AF1EE10FA02D214
:101A30000120A0400543641C032CB5DB284603B0FD
:101A4000BDEC028BF0BD2DE9F04F87B005460C468A
:101A5000914601208DF8100000208DF81100084AF1
:101A60001268917C064A5268107804AB0222FFF794
:101A7000C2F9A8B14FF0FF3007B0BDE8F08F000009
:101A80002C00002000008047B080000800B04C45CA
:101A900054E3853F000000007B14AE3E1D5A843F96
:101AA000C82002F0D5FB00208DF81000FE4A126815
:101AB000D17BFD4A5268107804AB0122FFF79BF9F5
:101AC00010B14FF0FF30D7E7F74A12685179F64A64
:101AD0005268107804AB0122FFF78DF910B14FF076
:101AE000FF30C9E7F04A1268917CEF4A52681078DB
:101AF00004AB0122FFF77FF910B14FF0FF30BBE7D5
:101B0000E94A1268D17DE84A5268107804AB012294
:101B1000FFF771F910B14FF0FF30ADE7E24A1268FC
:101B20001179E14A5268107804AB0122FFF763F99A
:101B300010B14FF0FF309FE70C208DF81000DA4A0B
:101B400012681179D84A5268107804AB0122FFF765
:101B500052F910B14FF0FF308EE70F2002F078FB02
:101B6000D148806A407A8DF81000CF4A1268917887
:101B7000CD4A5268107804AB0122FFF73CF910B14E
:101B80004FF0FF3078E7C848806A007A8DF810007F
:101B9000C54A12685178C44A5268107804AB0122D1
:101BA000FFF729F910B14FF0FF3065E7B9F1000FE9
:101BB00007D0BD48806A807A40F0E0008DF81000C0
:101BC00004E0B948806A807A8DF81000B64A12683D
:101BD0009179B54A5268107804AB0122FFF70BF9EE
:101BE00010B14FF0FF3047E7B9F1000F07D0AE4812
:101BF000806AC07A40F0E0008DF8100003E0AB4846
:101C0000C07A8DF81000A84A1268D179A64A5268A5
:101C1000107804AB0122FFF7EEF810B14FF0FF305F
:101C20002AE7B9F1000F02D0C82002F011FB4020D2
:101C30008DF810009C4A126811799B4A52681078FE
:101C400004AB0122FFF7D7F810B14FF0FF3013E7D4
:101C500078208DF81000944A12685179924A52689F
:101C6000107804AB0122FFF7C6F810B14FF0FF3037
:101C700002E78E49888902F0EBFA00208DF8100007
:101C8000894A12685179884A5268107804AB012257
:101C9000FFF7B1F810B14FF0FF30EDE6824A12685D
:101CA000917A814A5268107804AB0222FEF7E2FF73
:101CB00010B14FF0FF30DFE69DF811009DF81010D5
:101CC00040EA012B0C209BFBF0F0C6B20020A8607C
:101CD00068602860A06060602060824665E0724AAB
:101CE0001268D17A704A5268107804AB0C22FEF761
:101CF000C1FF10B14FF0FF30BEE69DF811009DF816
:101D0000101040EA012000B2ADF808009DF8130061
:101D10009DF8121040EA012000B2ADF80A009DF8CB
:101D200015009DF8141040EA012000B2ADF80C0037
:101D3000BDF90810206808442060BDF90A106068E9
:101D400008446060BDF90C10A0680844A0609DF8CC
:101D500017009DF8161040EA012000B2ADF800000F
:101D60009DF819009DF8181040EA012000B2ADF866
:101D700002009DF81B009DF81A1040EA012000B2F5
:101D8000ADF80400BDF90010286808442860BDF9CA
:101D90000210686808446860BDF90410A868084427
:101DA000A8600AF1010000F0FF0AB24597DB3F4846
:101DB000D0F800C02868C117090441EA104107049F
:101DC00062460023384604F0C7F832460023CDE9C6
:101DD000020104F0C1F828603448D0F800C06868F7
:101DE000C117090441EA104107046246002338463E
:101DF00004F0B2F832460023CDE9020104F0ACF859
:101E000068602A48D0F800C0A868C117090441EAF0
:101E10001041070462460023384604F09DF832461C
:101E20000023CDE9020104F097F8A8601F48D0F81C
:101E300004C02168C817000440EA11480F04624634
:101E400000233846414604F087F832460023CDE9A6
:101E5000020104F081F820601448D0F804C06068E2
:101E6000C117090441EA10410704624600233846BD
:101E700004F072F832460023CDE9020104F06CF858
:101E800060600A48D0F804C0A068C117090441EA9C
:101E90001041070462460023384604F05DF83246DC
:101EA0000023CDE9020103E02C000020B0800008EF
:101EB00004F052F8A060A068002804DDA068A0F536
:101EC0008030A06003E0A06800F58030A0600020B2
:101ED000D2E50146FB48007C0870002070470146AF
:101EE000F84890F8240010B14FF0FF307047F548E3
:101EF000C08908800020F9E70146F248C07A082826
:101F000017D2DFE800F01704070A0D101318BC20E1
:101F1000088013E06220088010E02A2008800DE08D
:101F2000142008800AE00A20088007E005200880C5
:101F300004E000BF00BF0020088000BF00BF0020F9
:101F400070470146DF48407A30B1012807D00228A7
:101F500008D003280CD108E0022008700BE0042010
:101F6000087008E00820087005E01020087002E002
:101F70004FF0FF30704700BFD248C07C18B10878DE
:101F80004006000E08700020F4E70146CD48007AB4
:101F900030B1012807D0022809D003280FD10AE068
:101FA000FA2008800EE04FF4FA7008800AE04FF43F
:101FB0007A70088006E04FF4FA60088002E00020A2
:101FC000088000BF00BF002070472DE9F04F8DB0A2
:101FD00083460F4602200C90BA4890F8240020B1A6
:101FE0000020FFF7C4FA012600E0002603A8FFF74F
:101FF000CCFF05A8FFF7A5FF01A8FFF77DFF02A80A
:10200000FFF76DFFAF4890F80AA004A8FFF761FF43
:10201000002407E0002239465846FFF714FD00B9B6
:1020200002E0641C022CF5DB00BF022C01D100256C
:1020300028E0002407E0012206A909A8FFF703FD14
:1020400000B902E0641C022CF5DB00BF022C01D1B8
:10205000002517E006A93846FFF79AFC00F0FF08B4
:1020600009A95846FFF7B2FB00F0FF090025B9F1B6
:10207000000F01D145F00105B8F1000F01D145F085
:10208000020500BFFF208F490872FF218D48417271
:10209000C1724FF6FF71C181FF218172017401216C
:1020A0000173BDF80C00FFF74FFB9DF81400FFF71C
:1020B0000CFBBDF80400FFF74BF8BDF80800FFF774
:1020C00066F95046FFF798FA9DF81000FFF77FF881
:1020D00016B10120FFF74BFA28460DB0BDE8F08F8E
:1020E00010B588B002A905A8FFF76FFF0446072CBA
:1020F0003FD101A8FEF7E1FE9DED050AB8EEC00A4A
:10210000DDED010A20EE200ABDEEC00A8DED050AC4
:102110009DED060AB8EEC00ADDED010A20EE200AA8
:10212000BDEEC00A8DED060A9DED070AB8EEC00AA5
:10213000DDED010A20EE200ABDEEC00A8DED070A92
:1021400005A801F082F86846FEF790FEBDF8001081
:10215000029848430290BDF800100398484303904A
:10216000BDF8001004984843049002A801F000F95B
:1021700000BF08B010BD014691F90020002A01DD22
:1021800000201EE091F90020002A01DA042018E066
:1021900091F90120002A01DD012012E091F90120CE
:1021A000002A01DA05200CE091F90220002A01DD65
:1021B000022006E091F90220002A01DA062000E060
:1021C0000720704710B504462046FFF7D4FF0346AA
:1021D000E01CFFF7D0FF43EAC00083B2A01DFFF769
:1021E000CAFF43EA801083B2184610BD704738B565
:1021F000002419E033480068C07AA04204D0314876
:102200000068407DA04200D10CE02E494968087862
:102210006B4601222146FEF72DFD10B14FF0FF3035
:1022200038BD00BF601CC4B2264840680079A04297
:10223000E0DC0020F4E770B504460D462148006854
:10224000C07AA04204D01F480068407DA04202D15D
:102250004FF0FF3070BD1B4840680079A04202DC9F
:102260004FF0FF30F6E71749496808782B460122FE
:102270002146FEF7FFFCEDE71CB580208DF800003D
:10228000104A1268917C0F4A526810786B460122FE
:10229000FEF7B1FD10B14FF0FF301CBD642001F01E
:1022A000D7FF00208DF80000064A1268917C054A8D
:1022B000526810786B460122FEF79DFD20B14FF069
:1022C000FF30EAE72C000020FE4A1268917DFD4AAB
:1022D000526810786B460622FEF7CCFC10B14FF026
:1022E000FF30DAE79DF80500C007400F9DF80310A6
:1022F00001F0010140EA41009DF8011001F00101E7
:1023000040EA01048CB1012C03D10121ED48C174D4
:1023100030E0022C03D10021EA48C1742AE0EAA08F
:1023200003F03EFE4FF0FF30B7E7E64A1268D1787F
:10233000E44A526810786B460122FEF79BFC10B10C
:102340004FF0FF30A9E79DF8000000F00F042CB912
:10235000E64803F025FE4FF0FF309EE7042C06D13F
:10236000E3A003F01DFE0121D648C17402E0002164
:10237000D448C174FF21D3488172FF20D14908722B
:10238000FF21D0484172C1724FF6FF71C181FF2118
:10239000017481740121017380F82210002180F8FA
:1023A0002310417501751630016041608160163857
:1023B00080F8241080F82510C1844FF4FA60FFF7EC
:1023C000C3F910B14FF0FF3067E70220FFF77DF946
:1023D00010B14FF0FF3060E72A20FEF7B9FE10B1D0
:1023E0004FF0FF3059E73220FEF7D1FF10B14FF028
:1023F000FF3052E70020FEF7EAFE10B14FF0FF3049
:102400004BE70020FFF70FF810B14FF0FF3044E723
:102410000020FFF7F1F800203FE77CB504460D46A9
:10242000A848807A00F0700010B94FF0FF307CBDF2
:10243000A44A1268117BA34A526810786B460622A0
:10244000FEF718FC10B14FF0FF30F0E79DF80100E7
:102450009DF8001040EA012000B220809DF80300A2
:102460009DF8021040EA012000B260809DF805004E
:102470009DF8041040EA012000B2A0800020D6E7B9
:102480007CB504460D468F48807A00F0080010B9EC
:102490004FF0FF307CBD8B4A1268517B894A5268ED
:1024A00010786B460622FEF7E5FB10B14FF0FF30C7
:1024B000F0E79DF801009DF8001040EA012000B20D
:1024C00020809DF803009DF8021040EA012000B230
:1024D00060809DF805009DF8041040EA012000B2DC
:1024E000A08015B12846FFF781FE0020D2E7F8B59D
:1024F00006460C467348807A10B94FF0FF30F8BD9D
:10250000704A1268917B6F4A526810786B460222BB
:10251000FEF7B0FB10B14FF0FF30F0E79DF801007F
:102520009DF8001040EA012005B214B12046FFF7E3
:102530005DFE64484068B0F9080000EE100AF8EE4D
:10254000C00A00EE105AB8EEC00A70EE600A5D488C
:102550004068C08800EE100AB8EE400A80EE801A8B
:102560009FED6B0A31EE000ADFED6A0A20EE200AC9
:10257000BDEEC00A86ED000A0020C0E710B588B0A5
:1025800004461CB94FF0FF3008B010BD206828B9D0
:10259000606818B9A06808B90020F5E7494949689A
:1025A000087806AB03221146FEF764FB10B14FF02A
:1025B000FF30E9E79DF81800082101EB201000F03A
:1025C0000F00ADF800009DF8190001EB201000F09D
:1025D0000F00ADF802009DF81A0001EB201000F08A
:1025E0000F00ADF8040020684100BDF90000403044
:1025F00091FBF0F000B2ADF8100060684100BDF949
:102600000200403091FBF0F000B2ADF81200A0687B
:102610004100BDF90400403091FBF0F000B2ADF88C
:10262000140028494968087806AB06221146FEF7CF
:1026300021FB10B14FF0FF30A6E79DF819009DF87F
:10264000181040EA012000B2ADF808009DF81B0008
:102650009DF81A1040EA012000B2ADF80A009DF87A
:102660001D009DF81C1040EA012000B2ADF80C00DE
:10267000BDF81000BDF80810084400B2ADF8100015
:10268000BDF81200BDF80A10084400B2ADF81200FF
:10269000BDF81400BDF80C10084400B2ADF81400E9
:1026A000BDF81000000A8DF81800BDF81000C0B287
:1026B0008DF81900BDF81200000A8DF81A00BDF857
:1026C000120029E02C000020556E737570706F7237
:1026D00074656420736F6674776172652070726FC1
:1026E0006475637420726576202E0A00E08E0008FF
:1026F00048616C662073656E736974697669747974
:10270000207061727420666F756E642E0A0000007E
:1027100000000C4200008047C0B28DF81B00BDF8DD
:102720001400000A8DF81C00BDF81400C0B28DF82A
:102730001D00FD494968087806AB06221146FEF7E0
:102740005AFB10B14FF0FF301EE700201CE7014696
:1027500000200880401E704701464FF0FF30704750
:102760000146F148807A10B10120087001E0002094
:1027700008700020704738B50446EB48807A10B9DD
:102780004FF0FF3038BDE84A1268117CE64A5268C3
:1027900010786B460222FEF76DFA10B14FF0FF3051
:1027A000F0E79DF801009DF8001040EA012000B21A
:1027B00020800020E6E72DE9FE4F07468846924636
:1027C0001D46DDF830B000260024D74890F82400DC
:1027D00010B1601EBDE8FE8F00202870D248807ABC
:1027E00010B94FF0FF30F5E7CF48007C10B94FF03B
:1027F000FF30EFE7CC48007C00F0400008B1B01C8F
:10280000C6B2C948007C00F0200008B1B01CC6B2B6
:10281000C548007C00F0100008B1B01CC6B2C24828
:10282000007C00F0080008B1B01DC6B2BE4A1268B4
:10283000917ABD4A526810786B460222FEF71AFA66
:1028400010B14FF0FF30C5E79DF801009DF8001072
:1028500040EA0129B14501DA0020BBE7B2484068EF
:102860004088B9EB600F17DDAF4A1268517CAE4A61
:10287000526810786B460122FEF7FCF910B14FF058
:10288000FF30A7E79DF8000000F0100020B1FEF730
:1028900039FB6FF001009DE75046FFF7A7FCA24A05
:1028A0001268D17AA04A526810786B463246FEF719
:1028B000E1F910B14FF0FF308CE799FBF6F0401EC4
:1028C0008BF8000000202870B4422AD09648007C83
:1028D00000F0080028B3601C1DF800001DF804106B
:1028E00040EA012000B2A8F80000E01C1DF800102A
:1028F000A01C1DF8000041EA002000B2A8F8020068
:10290000601D1DF80010201D1DF8000041EA002088
:1029100000B2A8F80400287840F008002870A01D34
:1029200084B2B44213D08048007C00F0400070B103
:10293000601C1DF800001DF8041040EA012000B2E0
:102940003880287840F040002870A01C84B2B4423F
:1029500013D07548007C00F0200070B1601C1DF899
:1029600000001DF8041040EA012000B278802878A9
:1029700040F020002870A01C84B2B44213D06A48F2
:10298000007C00F0100070B1601C1DF800001DF804
:10299000041040EA012000B2B880287840F010000E
:1029A0002870A01C84B2002014E7F8B504460F4636
:1029B00016465D4890F8240010B94FF0FF30F8BD7E
:1029C0005948807A10B94FF0FF30F8E7564A12683C
:1029D000917A554A526810786B460222FEF74AF9FE
:1029E00010B14FF0FF30EAE79DF801009DF80010AC
:1029F00040EA0125A54203DA00203070401EDEE7E0
:102A0000494840684088B5EB600F17DD464A1268B8
:102A1000517C454A526810786B460122FEF72AF92C
:102A200010B14FF0FF30CAE79DF8000000F0100031
:102A300020B1FEF767FA6FF00100C0E7E2B23A4B4F
:102A40001B68D97A384B5B6818783B46FEF712F959
:102A500010B14FF0FF30B2E795FBF4F0401E30703C
:102A60000020ACE70146304880F822100020704773
:102A7000F8B504460D46164616B94FF0FF30F8BDBE
:102A80002948807A10B94FF0FF30F8E720128DF80E
:102A90000000E0B28DF801009DF8010028442249B1
:102AA00049684989884202DD4FF0FF30E7E71E4A56
:102AB0001268117E1C4A526810786B460222FEF79B
:102AC0009AF910B14FF0FF30D9E7EAB2164B1B6804
:102AD000597D154B5B6818783346FEF78CF910B1B9
:102AE0004FF0FF30CBE70020C9E7F8B504460D46AC
:102AF000164616B94FF0FF30F8BD0B48807A10B972
:102B00004FF0FF30F8E720128DF80000E0B28DF8AA
:102B100001009DF801002844034949684989884219
:102B200004DD4FF0FF30E7E72C000020FE4A12687A
:102B3000117EFD4A526810786B460222FEF75BF95F
:102B400010B14FF0FF30D7E7EAB2F74B1B68597D61
:102B5000F54B5B6818783346FEF78CF810B14FF0F0
:102B6000FF30C9E70020C7E72DE9F04385B00546EF
:102B70000E4690469946EC4890F8250020B14FF05B
:102B8000FF3005B0BDE8F08316B94FF0FF30F8E72D
:102B9000002423E0281B102801DD102000E0281B62
:102BA00087B2321939462046FFF762FF10B14FF065
:102BB000FF30E6E701AA39462046FFF796FF10B13D
:102BC0004FF0FF30DDE730193A4601A903F028FA4B
:102BD00010B16FF00100D4E7E01984B2AC42D9DB48
:102BE0004FEA28208DF8000008F0FF008DF8010062
:102BF000CD4A1268917ECC4A526810786B46022208
:102C0000FEF7F9F810B14FF0FF30BAE70121C648DE
:102C100080F82510A0F826900020B2E70146C248AF
:102C200090F8240008700020704702464FF0FF30F3
:102C3000704701464FF0FF307047F8B505460F4624
:102C40001446002C70D0B5F5FF5F01DDFF2605E0CE
:102C5000202D01DA012601E0C5F3471607B9012747
:102C6000282C02DD4FF0FF30F8BDAF48407D28BB77
:102C7000AD4890F8240038B10020FEF778FC01211F
:102C8000A94880F8201003E00021A74880F8201010
:102C9000A5481630FFF779F9A3481830FFF751F926
:102CA000A1481A30FFF728F99F481C30FFF717F9A1
:102CB0009D48817A81771F30FFF70BF90020FEF7DE
:102CC00002FA0020FEF7F6FA00208DF80000964A7E
:102CD00012689178944A526810786B460122FEF788
:102CE0008AF810B14FF0FF30BEE740208DF80000A9
:102CF0008D4A1268D17B8C4A526810786B4601224B
:102D0000FEF779F800B165E08DF800608DF801708C
:102D1000854A1268117A844A526810786B460222FA
:102D2000FEF769F808B155E047E0052001F090FA98
:102D30007D48407A072101EBC000C0B28DF8000049
:102D4000794A1268D179784A526810786B46012224
:102D5000FEF751F800B13DE020208DF80000012C75
:102D600003D100208DF801000EE0052C03DC0120CA
:102D70008DF8010008E0142C03DC02208DF801001E
:102D800002E003208DF801009DF80100072101EB0E
:102D90008010C0B28DF80100634A1268917C624ACB
:102DA000526810786B460222FEF725F800B111E058
:102DB00001215D484175002056E75B4A163200212B
:102DC00003E0505C00B105E0491C0C29F9D34FF039
:102DD000FF3049E7FF2054490872FF2152484172F1
:102DE000C1724FF6FF71C181FF218172017401210F
:102DF00001730146887FFEF7FFFB4B49C88AFEF747
:102E0000A3FC4949087EFEF760FC4749488BFEF762
:102E10009FF94549888BFEF7BAFA4349C87FFEF708
:102E2000D6F9414890F8200010B10120FEF79FFB31
:102E300000213D484175002016E710B5FDF728FD3B
:102E4000FFF71AFA002834D17820FEF7D5FB08B135
:102E5000012010BD7820FEF7BAF908B10220F8E78A
:102E6000C820FEF794FA08B10320F2E700F052F907
:102E700008B10420EDE72D48FFF7A4F9044600F05F
:102E800053F908B10520E4E740F2731000F09DFD0E
:102E900008B10620DDE7C82000F000FB08B10720DC
:102EA000D7E7FFF71DF90120FEF761FB08B1082005
:102EB000CFE70020CDE770B52DED0E8B8EB0044628
:102EC0000D461646B7EE000AF0EE409A9FED180A3E
:102ED000B0EE408A9FED160AF0EE408A9FED140A8C
:102EE000B0EE409A07A808A90DAB03AACDE90010DF
:102EF00009A90BA800F0C8FE20B101200EB0BDEC5E
:102F00000E8B70BDBDF8200000F4807000287DD0CD
:102F10009DED030AB8EEC00ADFED060A80EE201A26
:102F2000F0EE419A08E000002C000020580000203C
:102F3000000000000000804E9DED040AB8EEC00ABB
:102F40005FED040A80EE201AB0EE418A9DED050A7D
:102F5000B8EEC00A5FED090A80EE201AF0EE418A51
:102F60009DED060AB8EEC00A5FED0E0A80EE201A4B
:102F7000B0EE419AB8EE000A28EE000A20EE090AE7
:102F8000F0EE000A69EEA00A00EEA80A10EE101A90
:102F9000084604F0FDFF41EC1D0BB0EE4D0AF0EECB
:102FA0006D0A03F0BDF9B0EE40CAF0EE60CA9FEDC5
:102FB000550B53EC102B51EC1C0B04F029FD41EC8C
:102FC0001B0B9FED520B53EC102B04F021FD41EC39
:102FD0001A0B04F0C3FC2060B8EE000A28EE000AC9
:102FE00020EE080AF0EE000A68EEA00A00EEE80AF9
:102FF000F7EE000A30EE200A10EE101A084604F030
:10300000C7FF41EC1D0BB0EE000A00E075E028EEB2
:10301000800A20EE090AF0EE000A69EEA00A00EE2E
:10302000880A10EE101A084604F0B2FF41EC1E0B9D
:10303000B0EE4D1AF0EE6D1AB0EE4E0AF0EE6E0ADA
:1030400003F08AFCB0EE40CAF0EE60CA9FED2D0B93
:1030500053EC102B51EC1C0B04F0DAFC41EC1B0B75
:103060009FED2A0B53EC102B04F0D2FC41EC1A0B11
:1030700004F074FC286029EEA90A08EE080A08EE9C
:10308000E80A09EE490A10EE101A084604F080FF1B
:1030900041EC1C0B28EE280A09EE890AF0EE000A22
:1030A00020EE200A10EE101A084604F071FF41ECE1
:1030B0001D0BB0EE4C1AF0EE6C1AB0EE4D0AF0EEAD
:1030C0006D0A03F049FCB0EE40EAF0EE60EA9FEDD5
:1030D0000D0B53EC102B51EC1E0B04F099FC41EC42
:1030E0001B0B9FED0A0B53EC102B04F091FC41ECF1
:1030F0001A0B04F033FC306001E00220FEE60020F1
:10310000FCE60000000000000000244066666666E1
:1031100066A64C4010B5C8234FF48062F74940F6CC
:10312000F630FFF721FD10BD10B586B00446F4A0BF
:1031300000680390F3A000680290F3A0006801907B
:10314000F2A00068009004F0030003A9085C8DF869
:10315000140003A8C4F3C101405C8DF8150003A856
:10316000C4F38111405C8DF8160004F0030002A93D
:10317000085C8DF8100002A8C4F3C101405C8DF812
:10318000110002A8C4F38111405C8DF8120005AA59
:10319000032140F22640FFF76BFC18B14FF0FF30DF
:1031A00006B010BD04AA032140F22A40FFF760FCDC
:1031B00010B14FF0FF30F3E70198059000980490AC
:1031C00004F0040058B19DF8140040F001008DF89F
:1031D00014009DF8100040F001008DF8100004F07C
:1031E000200058B19DF8150040F001008DF8150041
:1031F0009DF8110040F001008DF8110004F480707A
:1032000058B19DF8160040F001008DF816009DF8A9
:10321000120040F001008DF8120005AA03214FF4BE
:103220008860FFF725FC10B14FF0FF30B8E704AA23
:10323000032140F23140FFF71BFC10B14FF0FF308B
:10324000AEE7B34804810020AAE71FB50446B048A2
:10325000007A00F0030054F820000190AC48007A96
:1032600000F0040010B1019840420190A848007A93
:10327000C0F3C10054F820000290A548007A00F085
:10328000200010B1029840420290A148007AC0F399
:10329000811054F8200003909D48008900F480704C
:1032A00010B10398404203909A49019880FB0101B4
:1032B000800F40EA810001909649029880FB01103E
:1032C000820042EA917002909249039880FB0110BB
:1032D000820042EA917003900198000E8DF8000080
:1032E0000198000C8DF801000198000A8DF8020089
:1032F0000198C0B28DF803006A4604214FF474703F
:10330000FFF7B6FB18B14FF0FF3004B010BD0298C4
:10331000000E8DF800000298000C8DF80100029854
:10332000000A8DF802000298C0B28DF803006A46C8
:1033300004214FF47570FFF79BFB10B14FF0FF3085
:10334000E3E70398000E8DF800000398000C8DF859
:1033500001000398000A8DF802000398C0B28DF8AE
:1033600003006A4604214FF47670FFF781FBCCE737
:1033700070B588B0064601A8FDF778FDBDF80400D9
:103380000021C90341EA5045C4036148007A00F0B6
:10339000030056F8200005905D48007A00F0040014
:1033A00010B10598404205905948007AC0F3C10019
:1033B00056F8200006905648007A00F0200010B120
:1033C0000698404206905248007AC0F3811056F8A1
:1033D000200007904E48008900F4807010B10798D3
:1033E000404207900598C117A0FB042301FB04315C
:1033F00000FB0510810041EA927005900698C11704
:10340000A0FB042301FB043100FB0510810041EA0D
:10341000927006900798C117A0FB042301FB0431AA
:1034200000FB0510810041EA927007900598000E9C
:103430008DF808000598000C8DF809000598000A21
:103440008DF80A000598C0B28DF80B000698000EA2
:103450008DF80C000698000C8DF80D000698000AF7
:103460008DF80E000698C0B28DF80F000798000E78
:103470008DF810000798000C8DF811000798000ACD
:103480008DF812000798C0B28DF8130002AA0C2123
:103490004FF42570FFF7ECFA08B070BD30B585B079
:1034A00004461DA207CA02AB07C3C82C03DD4FF0B8
:1034B000FF3005B030BDC82090FBF4F0401E85B24F
:1034C000280A8DF80000E8B28DF801006A46022152
:1034D00040F21620FFF7CCFA10B14FF0FF30E8E7CA
:1034E00002AA0C2140F6C120FFF7C2FA10B14FF03A
:1034F000FF30DEE7064884810020DAE7D880000844
:103500004CCD6C000CC92C00365676002646660061
:103510004801002009E3CA02FEF2ABC4AAF1DFDFD2
:10352000BBAFDFDF0146F948808908800020704783
:10353000F0B52DED028B83B006460F4606F007006E
:1035400010B1B7F5C86F05DD4FF0FF3003B0BDEC2B
:10355000028BF0BD00EE107AB8EE400ADFEDEC0A07
:1035600080EE208A01A8FEF7ECFC9DF804000228FA
:1035700006D0042817D0082828D010284CD138E0CD
:103580009FEDE40A28EE000ABCEEC00A10EE100A15
:1035900084B29FEDE10A28EE000ABCEEC00A10EEEC
:1035A000100A85B23BE09FEDDD0A28EE000ABCEE72
:1035B000C00A10EE100A84B29FEDD90A28EE000A64
:1035C000BCEEC00A10EE100A85B228E09FEDD50AC5
:1035D00028EE000ABCEEC00A10EE100A84B29FED7D
:1035E000D20A28EE000ABCEEC00A10EE100A85B21C
:1035F00015E09FEDCE0A28EE000ABCEEC00A10EEE0
:10360000100A84B29FEDCA0A28EE000ABCEEC00A76
:1036100010EE100A85B202E04FF0FF3096E700BFCF
:1036200020128DF80800E0B28DF8090028128DF8FC
:103630000A00E8B28DF80B0006F00100A0B102AA62
:1036400002214FF4EA70FFF713FA10B14FF0FF3088
:103650007CE70DF10A0202214FF49270FFF708FA9D
:1036600010B14FF0FF3071E706F00200A0B102AADE
:1036700002214FF4EC70FFF7FBF910B14FF0FF306F
:1036800064E70DF10A0202214FF49470FFF7F0F99C
:1036900010B14FF0FF3059E706F00400A0B102AAC4
:1036A00002214FF4EE70FFF7E3F910B14FF0FF3055
:1036B0004CE70DF10A0202214FF49670FFF7D8F99A
:1036C00010B14FF0FF3041E700203FE738B5044626
:1036D0000020009004F0010020B19DF8000040F0AF
:1036E0003000009004F0020020B19DF8000040F08E
:1036F0000C00009004F0040020B19DF8000040F0A0
:10370000030000906A4601214FF4A470FFF7B0F95E
:1037100038BD38B50446012C01DA012402E0042C3E
:1037200000DD0424601EC0B200906A46012140F210
:103730004F10FFF79DF938BD38B50446052094FBBE
:10374000F0F085B228128DF80000E8B28DF8010083
:103750006A4602214FF4EF70FFF78AF938BD38B599
:103760000446052094FBF0F085B228128DF8000085
:10377000E8B28DF801006A4602214FF4ED70FFF7C0
:1037800077F938BDF8B505460E464FF47A7095FBCB
:10379000F0F000FB06F4200E8DF80000200C8DF8F0
:1037A0000100200A8DF80200E0B28DF803006A469D
:1037B00004214FF4AE70FFF75BF9F8BD38B504464D
:1037C000052094FBF0F084B220128DF80000E0B2E6
:1037D0008DF801006A4602214FF4AD70FFF748F9F9
:1037E00038BD38B50446052094FBF0F084B22012B1
:1037F0008DF80000E0B28DF801006A4602214FF416
:10380000AC70FFF735F938BD38B5044614B94FF040
:10381000FF3038BD6A4604214FF45870FFF765F950
:1038200010B14FF0FF30F4E79DF8000000069DF85E
:10383000011040EA01409DF8021040EA01209DF885
:103840000310084320600020E3E738B50446200E4B
:103850008DF80000200C8DF80100200A8DF8020080
:10386000E0B28DF803006A4604214FF45870FFF768
:10387000FFF838BD38B5044614B94FF0FF3038BDF5
:103880006A4604214FF47170FFF72FF910B14FF021
:10389000FF30F4E79DF8000000069DF8011040EAB3
:1038A00001409DF8021040EA01209DF803100843F2
:1038B00000EB8000800020600020E0E738B504467F
:1038C0001420B4FBF0F4200E8DF80000200C8DF8CD
:1038D0000100200A8DF80200E0B28DF803006A466C
:1038E00004214FF47170FFF7C3F838BD38B50446B2
:1038F00004B320208DF8000028208DF8010030202E
:103900008DF8020038208DF8030018E048010020EF
:10391000000048430000804600004046000000468A
:103920000000C04500008045000040450000004503
:103930000000C044A3220421684602F09DFB6A46B1
:10394000042140F69E20FFF793F8FDF7DBFA38BD1F
:1039500038B5044664B1C0208DF80000C2208DF84F
:103960000100C4208DF80200C6208DF8030004E099
:103970008B220421684602F07FFB6A46042140F650
:103980009820FFF775F8FDF7BDFA38BD3EB504463F
:103990006CB1FDA1D1E900208968CDE90020029138
:1039A0006A4609214FF49760FFF762F83EBDF9A21D
:1039B000D2E900109268CDE9010200916A4609211E
:1039C0004FF49760FFF754F8F0E73EB50446022045
:1039D0008DF80000CA208DF80100E3208DF8020068
:1039E00009208DF803006A4604216820FFF740F89B
:1039F000A3208DF8000004F0400048B1C0208DF8ED
:103A00000100C8208DF80200C2208DF8030006E0F6
:103A1000A3208DF801008DF802008DF8030004F456
:103A2000C07048B1C4208DF80400CC208DF805008A
:103A3000C6208DF8060006E0A3208DF804008DF85E
:103A400005008DF80600A3208DF807008DF808000A
:103A50008DF809006A460A2140F6A720FFF708F80A
:103A600004F0030018B120208DF8000002E0D820F7
:103A70008DF800006A46012140F6B620FEF7F8FFF7
:103A800004F0200018B10120FFF780FF02E00020C1
:103A9000FFF77CFF04F4C07008B304F4807060B1D9
:103AA000B2208DF800008B208DF80100B6208DF833
:103AB00002009B208DF803000BE0B0208DF8000081
:103AC00080208DF80100B4208DF8020090208DF840
:103AD00003006A46042140F6A220FEF7C9FF04F065
:103AE000010020B3F8208DF800006A4601214FF450
:103AF0000B60FEF7BDFFFA210720FFF719FD072035
:103B0000FFF7E4FD0120FFF704FE6420FFF714FE39
:103B10004FF4FA70FFF723FEC821A148FFF732FEE9
:103B20002820FFF74BFE0A20FFF75BFE08E0D820B5
:103B30008DF800006A4601214FF40B60FEF798FFF4
:103B400004F0020018B1D9208DF8000002E0D8205E
:103B50008DF800006A46012140F23D70FEF788FFB3
:103B600004F0040018B10120FFF7F2FE02E000208B
:103B7000FFF7EEFE04F0100018B10120FFF7B6FECB
:103B800002E00020FFF7B2FE44F0080085494881BA
:103B9000FDF7B8F900208349887304F0400018B19C
:103BA0000846807B801D887304F4C07020B17D4876
:103BB000807B801D7B49887304F0140020B1794814
:103BC000807B10307749887304F0030020B175487A
:103BD000807B001D7349887300203EBD01467148FB
:103BE00040890880002070472DE9F0410446E078C4
:103BF00000F0C006E07800F03F05607800F00100BA
:103C000098B1EF102846E91705EB5171C910A5EBE3
:103C1000C101491C01F0FF086248006820B16148F9
:103C2000414602683846904700BF607800F00800BF
:103C300030B15C48406818B1B0115A4A51688847A1
:103C40000020BDE8F08110B586B0044656A207CA30
:103C500003AB07C357A207CA8DE80700012C09D0A0
:103C6000022C0ED103AA0B2140F68220FEF700FFA2
:103C700006B010BD6A460B2140F68220FEF7F8FE22
:103C8000F6E74FF0FF30F3E72DE9F04F8DB0074630
:103C9000884615469B46DDE9166A002400203080E0
:103CA0004049887B524605A9FEF77FFE18B1601E89
:103CB0000DB0BDE8F08F3B48807A00F0140000287A
:103CC00061D09DF8140000069DF8151040EA0140EF
:103CD0009DF8161040EA01209DF81710084328604F
:103CE0009DF8180000069DF8191040EA01409DF863
:103CF0001A1040EA01209DF81B10084368609DF8E7
:103D00001C0000069DF81D1040EA01409DF81E10A1
:103D100040EA01209DF81F100843A8609DF820008C
:103D200000069DF8211040EA01409DF8221040EA6B
:103D300001209DF823100843E86004F11000C4B28C
:103D4000286800140190686800140290A8680014A4
:103D50000390E8680014049001984043029901FB25
:103D60000100039901FB0100049901FB0109B9F16C
:103D7000706F02DBB9F1885F22DDFDF7C3F8002028
:103D80003080401E94E721E0B8AAB38DB4980D3579
:103D90005D000000B8AAAAAAB088C3C5C700000089
:103DA00009E3CA0248010020D8B1B9F38BA391B648
:103DB00009B4D900DAB1B9F38BA391B6DAB4DA0059
:103DC000B6F9000040F48070308000BF3248807A3D
:103DD00000F0400020B305A9601C085C095D40EAC2
:103DE000012000B2A8F8000005A9E01C095C05AAA2
:103DF000A01C105C41EA002000B2A8F8020005A94E
:103E0000601D095C201D105C41EA002000B2A8F88A
:103E10000400A01DC4B2B6F9000040F008003080D4
:103E20001D48408900F4C07008B305A9601C085CF7
:103E3000095D40EA012000B2388005A9E01C095C58
:103E400005AAA01C105C41EA002000B2788005A9F8
:103E5000601D095C201D105C41EA002000B2B880A2
:103E6000A01DC4B2B6F9000040F0700030800A48CE
:103E7000807A00F0030018B105A90819FFF7B4FE15
:103E8000002015E701460448016000207047014604
:103E900001484160002070474801002030B58BB0D8
:103EA00040F2DC5400250121022000F0CEFE012169
:103EB000042000F081FE4FF47070099002208DF80C
:103EC000280003208DF8290000208DF82A00012009
:103ED0008DF82B0009A95A4800F0D0FB02220621D8
:103EE000574800F056FC02220721554800F051FCCB
:103EF00002220821524800F04CFC022209215048BD
:103F000000F047FC532540F6C3100790ADF8185059
:103F10000020ADF82000ADF81A0006A9494801F0CC
:103F200076FA6020ADF804000120ADF80600039495
:103F30000020ADF8100001A9424801F0FDFA082167
:103F4000404801F086FC01A93E4801F02EFB082103
:103F50003C4801F087FC01A93A4801F073FB0821B5
:103F6000384801F08CFC01A9364801F0D1FB08214A
:103F7000344801F08DFC334801F02FFF0121314816
:103F800001F0B0FA01212F4801F0CAFA0BB030BDA0
:103F900070B5044600BF2C4860430A2190FBF1F045
:103FA000322190FBF1F04FF4E16190FBF1F000F56C
:103FB000FA752946234801F018FC70BD70B5044617
:103FC00000BF214860430A2190FBF1F0322190FBB1
:103FD000F1F04FF4E16190FBF1F000F5FA7529463C
:103FE000184801F004FC70BD70B5044600BF1648C7
:103FF00060430A2190FBF1F0322190FBF1F04FF485
:10400000E16190FBF1F000F5FA7529460D4801F0E9
:10401000F0FB70BD70B5044600BF0B4860430A2139
:1040200090FBF1F0322190FBF1F04FF4E16190FB55
:10403000F1F000F5FA752946024801F0DCFB70BD8D
:10404000000802400004004040420F001FB501215B
:10405000042000F0FAFD40F2CF7002902920ADF864
:1040600004000020ADF80600ADF80C0001A944489A
:1040700001F0CDF901221146414801F069FE01210C
:104080003F4801F04DFA1E208DF8000001208DF808
:10409000010003208DF8020001208DF8030068461E
:1040A00000F0FBF91FBD44F6206191FBF0F1491EC1
:1040B000334A2C3211607047411E314A2C32116054
:1040C000704710B5044600BF40212E4801F092F819
:1040D0000028F9D021462B4800F0DCFF10BDFEB5CA
:1040E00006460D46002404E000200DF80400601C84
:1040F000C4B2092CF8DBEE208DF80000CC208DF83E
:104100000100AA208DF80200300A8DF80300F0B2F9
:104110008DF80400280E8DF80500280C8DF8060097
:10412000280A8DF80700E8B28DF80800032409E09A
:104130009DF809001DF804100844C0B28DF809006C
:10414000601CC4B2092CF3DB0A208DF80A0000249D
:1041500005E01DF80400FFF7B4FF601CC4B20B2C8F
:10416000F7DBFEBD10B5044600BF4021064801F054
:1041700041F80028F9D02146034800F08BFF10BD1C
:1041800000080040001001400044004010B5044603
:104190006FF0040000F0CEF9E11704EB5171C1F3A8
:1041A000C701394A11701046007800EB4001C1EB9D
:1041B000C0104FF6FF7101EAC0003449088010BDFD
:1041C0000146314A12784A434FF0E0235A610022F7
:1041D0009A611A46126942F001021A6100BF4FF05B
:1041E000E022106900F001021AB100F48032002AC6
:1041F000F5D04FF0E022126922F001024FF0E023E7
:104200001A6100229A6170470146204A12884A4387
:104210004FF0E0235A6100229A611A46126942F077
:1042200001021A6100BF4FF0E022106900F00102A4
:104230001AB100F48032002AF5D04FF0E022126962
:1042400022F001024FF0E0231A6100229A617047C8
:1042500070B504464FF4077094FBF0F0C6B24FF40B
:10426000077094FBF0F100FB114085B205E04FF4BC
:104270000770FFF7C9FF701EC6B2002EF7D115B147
:104280002846FFF7C1FF70BD6200002064000020D7
:10429000014600BF704700BF684A128802F0400222
:1042A000002AF9D0C2B2654B9A80704710B588B029
:1042B00004460121084600F07FFC0121082000F09F
:1042C0007BFC0121102000F0D1FC0121480400F00A
:1042D000BCFC072209215A4800F05BFA07220A2198
:1042E000574800F056FA07220221554800F051FACB
:1042F00007220321524800F04CFA4FF4C0600690A8
:1043000002208DF81C008DF81D0000208DF81E0085
:1043100001208DF81F0006A9494800F0AFF90C20D4
:10432000069002208DF81C008DF81D0000208DF8ED
:104330001E0001208DF81F0006A9414800F09EF9DB
:1043400002940020ADF80C00ADF80E00ADF810009E
:10435000ADF814000C20ADF8120002A9374800F0A7
:10436000E6FD02940020ADF80C00ADF80E00ADF8AB
:104370001000ADF814000C20ADF8120002A931486D
:1043800000F0D5FD01212D4800F059FE01212D48F6
:1043900000F055FE012240F22551284800F005FFAB
:1043A00025208DF8040003208DF805008DF8060007
:1043B00001208DF8070001A800F06FF808B010BDCB
:1043C00010B540F225511D4800F02AFF10B31B48DC
:1043D00000F064FEC4B21C48008800F40040C8B974
:1043E0001948008800F4804060B10A2C03D00020F6
:1043F0001549088020E01448008840F40040124924
:10440000088019E00D2C06D10F48008840F4804048
:104410000D49088010E00C480088C0F30D000B49DE
:104420000C5409480088401C074908800846008849
:10443000C72801DD0020088010BD000000100140E9
:1044400000000240004400406C00002058010020A1
:104450000948804709480047FEE7FEE7FEE7FEE718
:10446000FEE7FEE7FEE7FEE7FEE7FEE70448054954
:10447000054A064B704700001D0700088901000827
:10448000800200208008002080040020800400209A
:1044900032490143324A1160704770B50021002350
:1044A0000F22C4781CB32E4C246804F4E064C4F5D5
:1044B000E064C4F30721C1F10404E3B20A41447883
:1044C0009C40E1B28478144021430C07210E254C16
:1044D00005786155047804F01F050124AC40057887
:1044E0006D11AD0005F1E025C5F8004109E0047843
:1044F00004F01F050124AC401B4D0678761145F8E9
:10450000264070BD194A0A400243154B1B1F1A6012
:10451000704739B1124A121D12680243104B1B1D1D
:104520001A6006E00E4A121D126882430C4B1B1DD6
:104530001A607047042808D14FF0E021096941F062
:1045400004014FF0E022116107E04FF0E02109691A
:1045500021F004014FF0E022116170470000FA05DC
:104560000CED00E000E400E080E100E080FFFF1FD0
:1045700010B504469848844208D10121084600F04D
:1045800086FB0021012000F082FB76E09348844204
:1045900008D10121022000F07AFB0021022000F066
:1045A00076FB6AE08E48844208D10121042000F0A5
:1045B0006EFB0021042000F06AFB5EE08948844223
:1045C00008D10121082000F062FB0021082000F042
:1045D0005EFB52E08448844208D10121102000F0A3
:1045E00056FB0021102000F052FB46E07F48844239
:1045F00008D10121202000F04AFB0021202000F0FA
:1046000046FB3AE07A48844208D10121402000F07C
:104610003EFB0021402000F03AFB2EE0754884422A
:1046200008D10121802000F032FB0021802000F021
:104630002EFB22E07048844208D10121801500F051
:1046400026FB0021A01500F022FB16E06B488442F7
:1046500008D10121401500F01AFB0021601500F07F
:1046600016FB0AE06648844207D10121001500F0DC
:104670000EFB0021201500F00AFB10BDF0B50A4624
:1046800000210023002400BF3DE0012505FA01F3CD
:10469000156805EA03049C4234D105684F000326DF
:1046A000BE40B543056015794E00B54006683543F8
:1046B00005601579012D02D01579022D16D1856876
:1046C0004F000326BE40B543856055794E00B54086
:1046D000866835438560456801268E40B543456050
:1046E000456896798E40B6B235434560C5684F003F
:1046F0000326BE40B543C560D5794E00B540C668B7
:104700003543C560491C1029BFD3F0BD4FF6FF717A
:1047100001600021017141718171C171704708B55B
:104720004FF480320092009A0A430092009AC261CC
:10473000C161009AC261C2690092C269009208BD5B
:104740000246002013690B400BB1012000E000205D
:1047500070470146086980B27047024600205369DD
:104760000B400BB1012000E0002070470146486972
:1047700080B2704701837047418370470AB101835B
:1047800000E0418370474161704742694A4042619D
:104790007047F0B5002300244D07ED0E02FA05F333
:1047A000CE1000F1200555F826504E07F70E0F26C3
:1047B000BE40B543CF1000F1200646F82750CE107A
:1047C00000F1200555F8265045EA0304CE1000F10B
:1047D000200545F82640F0BD0000024000040240DC
:1047E00000080240000C0240001002400014024089
:1047F00000180240001C0240002002400024024039
:1048000000280240F948006840F00100F7490860BC
:104810000020F64908310860F4480068F44908406F
:10482000F2490860F348091D0860F348EF498431F4
:104830000860F0481038091D0860EC48006820F452
:104840008020EA4908600020E8490C310860E74907
:104850008C31086070470021E44A921C11701146A7
:104860000870704710B501460022002300204A114D
:10487000012A02D1DD4C236808E0022A03D1DB4C77
:104880007034236802E0D94C7434236801F01F02AD
:10489000012494401C400CB1012000E0002010BD18
:1048A00038B5002000900024002500BF3120FFF71C
:1048B000D9FF05460098401C00900098B0F5A04F25
:1048C00001D0002DF2D03120FFF7CCFF08B1012438
:1048D00000E00024204638BD01460020C34A10688D
:1048E00020F0F80040EAC10010607047C34908603A
:1048F00070470021BD4A703211701170012802D03A
:1049000004280AD104E00121B84A7032117005E090
:104910000521B64A7032117000E000BF00BF704739
:10492000B7490860704770B5049C41EA82150126BA
:10493000C6EB530645EA0645054345EA0465AB4E1A
:10494000361D356070BDAD4908667047820142EA88
:104950000172A64B84331A607047A8498866704775
:1049600010B5830143EA016343EA02739F4C883424
:10497000236010BDA14908677047A049C86470470B
:1049800002460020994B0833186820F0EC6042EA98
:1049900001031843954B0833186070470246002006
:1049A000924B0833186820F0784042EA010318431C
:1049B0008E4B083318607047014600208B4A08323E
:1049C000106820F0030008431060704787480830E3
:1049D000006800F00C00704701460020834A08324E
:1049E000106820F0F0000843106070470146002076
:1049F0007E4A0832106820F4E05008431060704787
:104A000001460020794A0832106820F4604040EAEC
:104A1000C10010607047F0B500210022002402257B
:104A200000260223714F08373F6807F00C0121B1BF
:104A3000042905D0082937D105E0724F076036E018
:104A4000714F076033E0694F3F1D3F68C7F38056E1
:104A5000664F3F1D3F6807F03F036EB16A4FB7FBDB
:104A6000F3F7DFF888C10CF1040CDCF800C0CCF3DC
:104A7000881C07FB0CF40CE0624FB7FBF3F7DFF880
:104A80006CC10CF1040CDCF800C0CCF3881C07FBF3
:104A90000CF4564F3F1D3F68C7F301477F1C7D0054
:104AA000B4FBF5F7076002E0564F076000BF00BF98
:104AB0004E4F08373F6807F0F0010909534F7A5C01
:104AC0000768D7404760494F08373F6807F4E0510F
:104AD000890A4E4F7A5C4768D7408760434F083752
:104AE0003F6807F46041490B484F7A5C4768D740FC
:104AF000C760F0BD002100F44072B2F5407F0AD1DA
:104B00003A4A0832116821F4F811414A024011432F
:104B1000364A08321160354A70321268C0F30B030E
:104B20001A43324B70331A60704735494439086074
:104B3000704733494039086070473649086070470C
:104B400001460020294A8C32106820F01F004A1EBE
:104B50001043264A8C321060704701460020234AD9
:104B60008C32106820F4F8504A1E40EA02201F4A96
:104B70008C3210607047014600201C4A8C3210684D
:104B800020F4401008431060704701460020174A87
:104B90008C32106820F440000843106070470146D2
:104BA0000020124A8C32106820F440300843106014
:104BB000704719490860704739B10C4A30321268A1
:104BC00002430A4B30331A6006E0084A303212685A
:104BD0008243064B30331A607047F9B1034A3432CE
:104BE00012680243014B34331A601CE00038024063
:104BF000FFFFF6EA1030002400300020000047429A
:104C0000800E47420024F40000127A006E0000205B
:104C1000FFFCFF0F5C014742E01147428F4A1268D8
:104C200082438E4B1A60704739B18C4A121D12684C
:104C300002438A4B1B1D1A6006E0884A121D126847
:104C40008243864B1B1D1A60704739B1834A0C3270
:104C500012680243814B0C331A6006E07F4A0C3223
:104C6000126882437D4B0C331A60704739B17B4A1E
:104C7000103212680243794B10331A6006E0774A0B
:104C8000103212688243754B10331A60704739B185
:104C9000724A243A12680243704B243B1A6006E0C1
:104CA0006E4A243A126882436C4B243B1A60704768
:104CB00039B16A4A203A12680243684B203B1A60B5
:104CC00006E0664A203A12688243644B203B1A6031
:104CD000704739B1614A1C3A126802435F4B1C3B72
:104CE0001A6006E05D4A1C3A126882435B4B1C3B2B
:104CF0001A60704739B1594A143A12680243574B47
:104D0000143B1A6006E0554A143A12688243534B2A
:104D1000143B1A60704739B1504A103A1268024386
:104D20004E4B103B1A6006E04C4A103A1268824320
:104D30004A4B103B1A60704739B1484A1C3212681E
:104D40000243464B1C331A6006E0444A1C32126888
:104D50008243424B1C331A60704739B13F4A2032BC
:104D6000126802433D4B20331A6006E03B4A203272
:104D700012688243394B20331A60704739B1374A81
:104D8000243212680243354B24331A6006E0334A5A
:104D9000243212688243314B24331A60704739B190
:104DA0002E4A2C32126802432C4B2C331A6006E038
:104DB0002A4A2C3212688243284B2C331A607047DF
:104DC00039B1264A303212680243244B30331A601C
:104DD00006E0224A303212688243204B30331A6098
:104DE0007047012808D11D493C31096841F008018C
:104DF0001A4A3C32116007E018493C31096821F039
:104E00000801164A3C321160704739B1134A273AFB
:104E100012780243114B273B1A7006E00F4A273ADB
:104E2000127882430D4B273B1A7070470B48403075
:104E3000006840F0807009494031086070470146C1
:104E40000020064A283A12680A400AB1012000E010
:104E500000207047014926390870704734380240F5
:104E600010B50446FA48844208D101211020FFF70A
:104E700052FF00211020FFF74EFF57E0F548844213
:104E800009D101214804FFF735FF00214FF400301C
:104E9000FFF730FF4AE0F048844209D1012188043D
:104EA000FFF728FF00214FF48020FFF723FF3DE0AC
:104EB000EA48844209D10121C804FFF71BFF002101
:104EC0004FF40020FFF716FF30E0E548844209D197
:104ED00001210805FFF70EFF00214FF48010FFF7B6
:104EE00009FF23E0DF48844208D101212020FFF799
:104EF00012FF00212020FFF70EFF17E0DA4884425E
:104F000009D101218807FFF7F5FE00214FF080400D
:104F1000FFF7F0FE0AE0D548844207D101214005A1
:104F2000FFF7E8FE00216005FFF7E4FE10BD2DE964
:104F3000FF4705460E460024A14600BFA046B089A3
:104F400000B100BF2C8A24F44054F08804432C8222
:104F5000AC8941F20C608443B0883189084371897F
:104F600008430443AC81AC8A24F44074B089044300
:104F7000AC826846FFF74FFDB548854202D0B9487C
:104F8000854202D1DDF80C9001E0DDF80890A88997
:104F900000F4004040B109EBC90000EB0910316892
:104FA0004900B0FBF1F707E009EBC90000EB09107D
:104FB00031688900B0FBF1F76420B7FBF0F0040121
:104FC0002009642101FB1078A88900F4004040B159
:104FD000322000EBC800B0FBF1F000F00700044302
:104FE00008E0322000EB08106421B0FBF1F000F083
:104FF0000F0004432C81BDE8FF874FF41651016078
:1050000000218180C18001810C21418100218181A9
:10501000704710B502460020108A20F470600B889B
:105020004C8823438C882343CC8823431843108225
:1050300010BD0021018041808180C180704721B175
:10504000828942F40052828104E082894DF6FF7326
:105050001A4082817047028B02F47F420283028BE6
:105060000A430283704721B1828942F4004282815F
:1050700003E08289C2F30E028281704721B1828AE5
:1050800042F40062828204E0828A4FF2FF731A4087
:1050900082827047C1F30802828070470146888887
:1050A000C0F308007047028A4FF6F0731A4002827C
:1050B000028A0A430282704721B1828942F00202C9
:1050C000828104E082894FF6FD731A408281704725
:1050D00082894FF2FF731A40828182890A4382815A
:1050E0007047028A4FF6DF731A400282028A0A432F
:1050F0000282704721B1028A42F48042028204E0B7
:10510000028A4BF6FF731A4002827047818941F090
:1051100001018181704721B1828A42F008028282B6
:1051200004E0828A4FF6F7731A4082827047028B3E
:10513000D2B20283028B42EA01220283704721B17C
:10514000828A42F02002828204E0828A4FF6DF7374
:105150001A408282704721B1828A42F01002828214
:1051600004E0828A4FF6EF731A4082827047828A87
:105170004FF6FB731A408282828A0A43828270470A
:1051800021B1828A42F00202828204E0828A4FF6D2
:10519000FD731A40828270471AB1838A0B4383825F
:1051A00002E0838A8B4383827047F0B50346002474
:1051B00000260025002040F66A17B94200D100BF42
:1051C0001846C1F3421401F01F06012707FA06F53D
:1051D000012C01D10C3004E0022C01D1103000E090
:1051E00014301AB107682F43076002E00768AF4325
:1051F0000760F0BD02460020B1F5007F00D100BF7E
:1052000013880B400BB1012000E00020704701F42F
:105210000072B2F5007F00D100BFCA430280704720
:1052200070B50246002400230025002040F66A16CF
:10523000B14200D100BFC1F3421501F01F030126A6
:1052400006FA03F3012D13D19689334017E00000CD
:10525000001001400044004000480040004C004065
:10526000005000400014014000780040007C0040E5
:10527000022D02D1168A334001E0968A33400C1287
:10528000012606FA04F41688344013B10CB101204B
:1052900000E0002070BD10B50022002340F66A1423
:1052A000A14200D100BF0A1201249440A3B2DC4302
:1052B000048010BD10B50446FE48844208D1012187
:1052C0000846FFF728FD00210120FFF724FD9DE09F
:1052D000B4F1804F08D101210846FFF70BFD0021F2
:1052E0000120FFF707FD91E0F348844208D1012136
:1052F0000220FFF7FFFC00210220FFF7FBFC85E006
:10530000EE48844208D101210420FFF7F3FC00217C
:105310000420FFF7EFFC79E0E948844208D101213D
:105320000820FFF7E7FC00210820FFF7E3FC6DE011
:10533000E448844208D101211020FFF7DBFC002162
:105340001020FFF7D7FC61E0DF48844208D101213B
:105350002020FFF7CFFC00212020FFF7CBFC55E0F9
:10536000DA48844208D101210220FFF7D4FC002151
:105370000220FFF7D0FC49E0D548844209D1012141
:105380000804FFF7C8FC00214FF48030FFF7C3FC8E
:105390003CE0D048844209D101214804FFF7BBFC1E
:1053A00000214FF40030FFF7B6FC2FE0CA488442DA
:1053B00009D101218804FFF7AEFC00214FF48020C1
:1053C000FFF7A9FC22E0C548844208D10121402012
:1053D000FFF790FC00214020FFF78CFC16E0C0484E
:1053E000844208D101218020FFF784FC0021802025
:1053F000FFF780FC0AE0BB48844207D101218015F9
:10540000FFF778FC0021A015FFF774FC10BD002207
:105410000288A84B98420ED0AC4B98420BD0B0F10A
:10542000804F08D0A44B984205D0A44B984202D09C
:10543000A34B984204D14FF68F731A404B881A43FE
:10544000A04B984207D0A04B984204D04FF6FF43A0
:105450001A400B891A4302804B68C3620B8803858C
:10546000944B984202D0994B984201D18B7A038693
:105470000123838270474FF0FF314160002101809A
:1054800001814180817270470185828270470A469E
:10549000002101884FF68F73194011430180704736
:1054A00041627047C16270470146486A70470146D1
:1054B000088D704721B1028842F00202028004E0A8
:1054C00002884FF6FD731A400280704721B10288AE
:1054D00042F00402028004E002884FF6FB731A4097
:1054E0000280704721B1028842F08002028004E00D
:1054F00002884FF67F731A400280704702884FF689
:10550000F7731A40028002880A43028070470288BB
:105510004FF6FF431A40028002880A430280704718
:1055200021B1028842F00102028004E002884FF6B5
:10553000FE731A400280704770B5002400220023D9
:10554000058C4FF6FE7635400584028C8388048BEB
:105550004FF68F752C40B51E2C400D882C43751EC0
:105560002A408D892A434D882A43524DA84202D0B1
:10557000564DA84213D14FF6F7752A40CD892A43DC
:105580004FF6FB752A408D882A434FF6FF652B4066
:105590004FF6FF552B400D8A2B434D8A2B438380BA
:1055A00004838D684563028470BD70B500240022B9
:1055B0000023058C4FF6EF7635400584028C8388F6
:1055C000048B48F6FF752C404FF6FF452C400D88A4
:1055D0004FF6FF7606EA05252C434FF6DF752A4085
:1055E0008D8906EA05152A434D8806EA05152A43E2
:1055F000304DA84202D0354DA8421DD14FF67F75DF
:105600002A40CD894FF6FF7606EA05152A434FF664
:10561000BF752A408D8806EA05152A434FF6FF35E7
:105620002B404FF2FF752B400D8A06EA85052B4370
:105630004D8A06EA85052B43838004838D68856344
:10564000028470BD70B5002400220023058C4FF643
:10565000FF6635400584028C8388848B4FF68F75F6
:105660002C404FF6FC752C400D882C434FF6FF550F
:105670002A408D894FF6FF7606EA05252A434D8894
:1056800006EA05252A430B4DA84202D00F4DA84239
:1056900038D14FF2FF752A40CD894FF6FF7606EAE2
:1056A00005252A434FF6FF352A408D8806EA052551
:1056B0002A4319E0000001400004004000080040B7
:1056C000000C0040001000400014004000040140A5
:1056D00000400140004401400048014000180040E3
:1056E000001C0040002000404EF6FF752B404DF698
:1056F000FF752B400D8A06EA05152B434D8A06EAF5
:1057000005152B43838084838D68C563028470BD37
:1057100070B5002200230024058C4EF6FF7635403C
:105720000584038C8488828B48F6FF752A404FF6E7
:10573000FF452A400D884FF6FF7606EA05252A43E5
:105740004DF6FF752B408D8906EA05352B434D88B4
:1057500006EA05352B43FE4DA84202D0FD4DA84276
:1057600008D14BF6FF752C400D8A4FF6FF7606EAFE
:1057700085152C43848082838D680564038470BD05
:10578000002101804180818081608181C18101820D
:105790004182704770B50346002000241846183037
:1057A00001258D40ACB21D8CA5431D8409B108298B
:1057B0000AD100EB610005684FF68F763540056031
:1057C0000568154305600FE00D1FC5F34E0528441D
:1057D000056848F6FF763540056005684FF6FF76A8
:1057E00006EA02263543056070BD41637047816358
:1057F0007047C1637047016470470A460021018BFE
:105800004FF68F7319401143018370470A460021F8
:10581000018B48F6FF7319404FF6FF7303EA02232A
:105820001943018370470A460021818B4FF68F731D
:1058300019401143818370470A460021818B48F645
:10584000FF7319404FF6FF7303EA02231943818364
:1058500070470A460021018B4FF6F7731940114338
:10586000018370470A460021018B4FF2FF731940F4
:105870004FF6FF7303EA02231943018370470A4678
:105880000021818B4FF6F7731940114381837047D4
:105890000A460021818B4FF2FF7319404FF6FF73C8
:1058A00003EA02231943818370470A460021018BD2
:1058B0004FF6FB7319401143018370470A460021DC
:1058C000018B4FF6FF3319404FF6FF7303EA0223B3
:1058D0001943018370470A460021818B4FF6FB7301
:1058E00019401143818370470A460021818B4FF68E
:1058F000FF3319404FF6FF7303EA022319438183F4
:1059000070470A460021018B4FF67F7319401143FF
:10591000018370470A460021018BC1F30E014FF647
:10592000FF7303EA02231943018370470A460021EB
:10593000818B4FF67F7319401143818370470A466C
:105940000021818BC1F30E014FF6FF7303EA02239E
:105950001943818370470A460021018C4FF6FD737D
:1059600019401143018470470A460021018C4FF60B
:10597000F77319401143018470470A460021018CD6
:105980004FF6DF7319404FF6FF7303EA0213194312
:10599000018470470A460021018C4FF67F7319403D
:1059A0004FF6FF7303EA02131943018470470A4656
:1059B0000021018C4FF6FF5319404FF6FF7303EAA5
:1059C00002231943018470470A460021018C4FF2DB
:1059D000FF7319404FF6FF7303EA02231943018452
:1059E00070470A460021018C4DF6FF7319404FF6AF
:1059F000FF7303EA023319430184704730B5002373
:105A000001248C40A3B2048C9C430484048C02FACD
:105A100001F5ADB22C43048430BD30B5002304241D
:105A20008C40A3B2048C9C430484048C02FA01F5DC
:105A3000ADB22C43048430BD828B4FF2FF331A4049
:105A40008283828B4FF6FF7303EA01231A4382831A
:105A50007047F0B50C461546002100220026078C41
:105A60004EF6FF7C07EA0C070784818B028C4FF609
:105A7000FF7707EA043640F6FF4739404FF6FF77D5
:105A800007EA052739434FF6FF7707EA033739431B
:105A900045F6FF773A4046F480573A4381830284C3
:105AA000F0BD828B4FF6F3731A408283828B0A43D8
:105AB00082837047F0B50C4615460021002200266F
:105AC000078C4FF6FF6C07EA0C070784818B028C6A
:105AD0004FF6FF7707EA04264FF60C7739404FF66A
